<<<<<<< HEAD
:0400000080313128F2
:100008007E1480310B1F09280A282F282E001A1C5D
:100018000E280F281728101C122813281728853196
:10002800572580312F28991C1A281B2823288F1C14
:100038001E281F2823288631E42680312F28191CE2
:10004800262827282F280F1C2A282B282F288631D6
:10005800E02680312F287E100900803133283D307A
:1000680084008630850056308600003087000C30CA
:100078008631AA2680314930840086308500A03038
:100088008600003087000C308631AA268031F801BE
:10009800F901FA01FB01FC014430840000308500BD
:1000A80012308631B02680317E1020008231E02A5D
:1000B8002000A20023000F0C890C0139F60011085A
:1000C8001F397604031D69286A285E28111411183F
:1000D8006E286F286B280F0C890C0139F60011085F
:1000E8001F397604031D79287A286F284E3083310A
:1000F800DB23803123000F0C890C0139F60011082D
:100108001F397604031D89288A287E2820002208A2
:10011800FA388331DB23803123000F0C890C013935
:10012800F60011081F397604031D9B289C28902887
:1001380020002208FE388331DB23803123000F0C96
:10014800890C0139F60011081F397604031DAD2802
:10015800AE28A2280000230091149118B428B528CD
:10016800B1280F0C890C0139F60011081F397604E3
:10017800031DBF28C028B5284F308331DB238031C9
:1001880023000F0C890C0139F60011081F39760479
:10019800031DCF28D028C42885310D2580312000A3
:1001A800A00023000F0C890C0139F60011081F3933
:1001B8007604031DE028E128D52891161116111A96
:1001C800E628E728E32891149118EB28EC28E8287A
:1001D8000F0C890C0139F60011081F397604031D2C
:1001E800F628F728EC284E308331DB2380312300B2
:1001F8000F0C890C0139F60011081F397604031D0C
:1002080006290729FB2820002208FA388331DB2336
:10021800803123000F0C890C0139F60011081F39B1
:100228007604031D182919290D2920002208FE38F3
:100238008331DB23803123000F0C890C0139F60050
:1002480011081F397604031D2A292B291F290000AC
:10025800230091149118312932292E290F0C890C69
:100268000139F60011081F397604031D3C293D2980
:1002780032294F308331DB23803123000F0C890C66
:100288000139F60011081F397604031D4C294D2940
:10029800412985310D2580312000A10023000F0C54
:1002A800890C0139F60011081F397604031D5D29F0
:1002B8005E29522991161116111A63296429602999
:1002C800911491186829692965290F0C890C01393D
:1002D800F60011081F397604031D7329742969294A
:1002E8004E308331DB23803123000F0C890C013918
:1002F800F60011081F397604031D832984297829FB
:1003080020002208FA388331DB23803123000F0CC8
:10031800890C0139F60011081F397604031D952947
:1003280096298A29111511199A299B29972920009C
:100338002108F6000430F636890B9F290F30760520
:10034800F7002008F039770408002000A0002008F2
:10035800F039A1002008F7000430F735890BB129DE
:100368007708F039A20023000F0C890C0139F70037
:1003780011081F397704031DC229C329B72911148D
:100388001118C729C829C4290F0C890C0139F7008D
:1003980011081F397704031DD229D329C8294E30E3
:1003A8008331DB23813123000F0C890C0139F700DD
:1003B80011081F397704031DE229E329D7292000F2
:1003C8002108760408388331DB23813123000F0CA0
:1003D800890C0139F70011081F397704031DF52925
:1003E800F629EA292000210876040C388331DB231A
:1003F800813123000F0C890C0139F70011081F39CE
:100408007704031D082A092AFD2900002000210875
:10041800760408388331DB23813123000F0C890CE3
:100428000139F70011081F397704031D1C2A1D2AFA
:10043800112A20002208760408388331DB23813111
:1004480023000F0C890C0139F70011081F397704B4
:10045800031D2F2A302A242A2000220876040C386B
:100468008331DB23813123000F0C890C0139F7001C
:1004780011081F397704031D422A432A372A00002E
:1004880020002208760408388331DB2381312300D9
:100498000F0C890C0139F70011081F397704031D67
:1004A800562A572A4B2A111511195B2A5C2A582AF1
:1004B8001030890B5D2A0032080041302000A3006B
:1004C800EE30890B652AA30B652A00003030843191
:1004D800262482313430843126248231A630890B97
:1004E800732A0032303084312624823107302000CC
:1004F800A3007D30890B7E2AA30B7E2A30308431FD
:10050800262482313430843126248231A630890B66
:100518008B2A003230308431262482312130890BF5
:10052800932A0000303084312624823134308431DB
:1005380026248231A630890B9F2A0032303084313C
:10054800262482312130890BA72A000020308431EB
:10055800262482312430843126248231A630890B26
:10056800B32A00322030843126248231073020001B
:10057800A3007D30890BBE2AA30BBE2AF6012830C2
:100588008131A9218231F60106308131A9218231D8
:10059800F6010F308131A9218231F6010130813114
:1005A800A921823103302000A3009730890BDA2A71
:1005B800A30BDA2A003208008531272582318731DA
:1005C8001827823156308600003087002C3084008E
:1005D800003085000C302000AA0016001A00AA0B73
:1005E800F12AA030860000308700383084000030BF
:1005F80085000C30AA0016001A00AA0BFF2A8231C7
:10060800612282312C302000A700A801A901853180
:100618004025823120001617CB302000AB00EC308B
:10062800AA008430890B162BAA0B162BAB0B162BA2
:10063800000038302000A700A801A9018531402515
:10064800823186310D268231CB302000AB00EC3070
:10065800AA008430890B2E2BAA0B2E2BAB0B2E2B2A
:10066800000086311E268231062B80313128200079
:10067800960197011830980099019A010F3091005E
:10068800FF309200FF309300FF3094000730950050
:100698000F303E00B800EF30C300E730CE00FF3027
:1006A800D9000730E400B901C401CF01DA01E5013E
:1006B800BA01C501D001DB01E601FF30BB00FF3004
:1006C800C600FF30D100FF30DC000730E700FF3004
:1006D800BC00FF30C700FF30D200FF30DD0007301C
:1006E800E80013303D00C50014303E00A30014306C
:1006F8003D00C60015303E00A400BD01BE01BF018B
:10070800C801C901CA01D301D401D501E901EA012F
:10071800EB01080087311227833123000F1E952B28
:10072800962B9A2B85319A258331C62B86319526AF
:100738008331003A0319A12BA22BB02B8631BC269A
:100748008331003A0319A92BAA2BB02B05302000BE
:10075800D1000130D000C62B8631CE268331003A35
:100768000319B72BB82BC62B8631BC268331003A28
:100778000319BF2BC02BC62B05302000D100023037
:10078800D000C62B20005108F200F301F235F30D1A
:10079800E930720784000530733D80388500013FD9
:1007A8008A00003F0A0083312000D1000800F500CC
:1007B800750823008C00901FE22BE32BE42B252CDB
:1007C8000F301005F400083074060319EC2BED2BDC
:1007D800032C0F301005F4000B3074060319F52BA9
:1007E800F62B032C10162E000F1CFB2BFC2BF72BC3
:1007F80023000F19002C012C252C0F08252C0F3055
:100808001005F4000830740603190B2C0C2C152C59
:100818000F301005F4000B307406031D142C152C32
:10082800252C0F18182C192C152C0F0C890C013994
:10083800F40011081F397404031D232C242C192CCF
:1008480011080800F70023000F0C890C0139F60085
:1008580011081F397604031D322C332C272C111450
:100868001118372C382C342C0F0C890C0139F60050
:1008780011081F397604031D422C432C382C4E30A6
:100888008331DB23843123000F0C890C0139F600F6
:1008980011081F397604031D522C532C472C770856
:1008A8008331DB23843123000F0C890C0139F600D6
:1008B80011081F397604031D622C632C572C11155F
:1008C8001119672C682C642C08000430F00086315C
:1008D800F0268431003A0319722C732C9E2C2000C8
:1008E8004D084E040319792C7A2C8B2C4B08860062
:1008F8004C08870087310C278431810001302000A3
:10090800CB070030CC3D0130CD020030CE3B4D0846
:100918004E040319902C912C952C8631F4268431A1
:10092800A12C8731062784318631EC2684310730A3
:10093800F000A12C873109278431700808002000B5
:1009480049084A040319A92CAA2CBE2C0130C90253
:100958000030CA3B470886004808870001088631EE
:10096800D326843101302000C7070030C83D03304A
:10097800F100CE2C4F080319C22CC32CCA2CCF016E
:100988008731032784310130F100CE2C863185264A
:100998008431F1007108080024000E108F019001C5
:1009A8000430910086308D00E7308C000D0820005F
:1009B800D30024000C082000D2001930E6000730CC
:1009C800E7000030E4000030E5002E0010101A1493
:1009D800053024008E00080006302000D1000330C6
:1009E800D00087311527843120005108F200F30127
:1009F800F235F30DE930720784000530733D803815
:100A08008500013F8A00003F0A0085312000D1009F
:100A180008000F3023001005F4000830740603198D
:100A2800162D172D202D0F301005F4000B307406ED
:100A3800031D1F2D202D212D91150F1C242D252D33
:100A4800212D0C08080086316B26853183313B2324
:100A580085318431D02485318531C325853186316E
:100A68002E2685318631D826853186315526853121
:100A7800863160268531080020002908A40028084E
:100A88008531852585318531D62585312000230896
:100A98002404031D502D512D472D2708A40085310E
:100AA800FB258531080020005308F1005208F000AA
:100AB80085316E2585312000660867040319652D88
:100AC800662D6B2D67088A0066080A0085312E009E
:100AD8001010080024000E1D722D732D802D0E0895
:100AE8000139F20071088D0070088C00720C031C2B
:100AF8000E1003180E14842D71088D0070088C00D8
:100B080008002000A500250803198B2D8C2D8F2D9A
:100B1800C030A600912D8030A60024080F39260485
:100B2800A600260886317D26853108002000C401EC
:100B38000030C600FF30C500C701C801CB01CC0199
:100B4800D1018731122785318731152785318631C3
:100B5800F826853108002E34063400340034003479
:100B680000340034003400340034003400340034DD
:100B780000340034003400340034003400340130D0
:100B880025009C009B019D01FF30990098010030D1
:100B98002000E2000030E3002E0090128030250093
:100BA8009A000800003080315C20853180390319B3
:100BB800DE2DDF2DE52D01302000A3000030A4003C
:100BC800E82D2000A301A4010800E83406348D3480
:100BD8000634A3340634A334043469340434C834E2
:100BE8000634C2340634853406349C340634002E68
:100BF800250886317426853120002408860087015F
:100C0800A40A0108A5002508031D0B2E0C2EFC2D97
:100C1800080055303D008F00AA308F008F010E303C
:100C28003E00960055303D008F00AA308F000130FD
:100C38008F00080055303D008F00AA308F008F01CB
:100C48003E00960155303D008F00AA308F000130DC
:100C58008F000800803023008F0008309000910139
:100C680092014F308D008631DC26863123009016A4
:100C780008004E344F3452344D3441344C3420340F
:100C88004D344F34443445340034503457344D34A3
:100C980020344D344F344434453420342034203407
:100CA8000034803027008E007F308D00C0308C00EB
:100CB8000C3024009F0408002E000C100B14003088
:100CC800F4000030F5008631B62686310800603021
:100CD80031008D008F0191010630930092010800C8
:100CE8002000A300F601F60A23088131A9218631E4
:100CF80008002000A300F60123088131A9218631CC
:100D0800080087310F27863185319A2586310030D2
:100D1800080003142000450D8631D326863104309F
:100D28000800031023008F1E03140030093D08003B
:100D38008631FC2686312000C401003008002000DE
:100D480045358631D326863103300800FE0012006F
:100D58001E00FE0BAB2E0034640080010131890BAC
:100D6800B12E003475082000E9007408E800080076
:100D78002300110E890C890C0139080086319C2644
:100D88008631F00070080800863185268631F0002B
:100D98007008080023000F0E890C01390800F000C4
:100DA800700823008C00080087310027863108006E
:100DB8002E0019149914080083318E2386310800F7
:100DC8008431F024863108002000C401083008006E
:100DD800230091161116080023000F080139080096
:100DE8002300911211160800230090131013080015
:100DF800230090129016080030009E11080023006E
:100E08009114080023009110080023009115080090
:100E180023000C0808002300111508002E000F10ED
:0C0E280008002E008F10080008000800D1
=======
:08000000803102288731ED2F49
:100D2E00080030009E1108002E00191499140800B6
:100D3E0086319826863108007B082000B7007A0895
:100D4E00B6000800640080010131890BAA2E003420
:100D5E00603031008D008F019101063093009201B9
:100D6E0008002E000C100B140030FA000030FB00AF
:100D7E008631A32686310800803023008F0008308C
:100D8E009000910192014F308D0086319B26863165
:100D9E002300901608008631AF26863187319A27B8
:100DAE0086318631E52686318631C32686318631F7
:100DBE009F2686318631B8268631080024000E1013
:100DCE008F0190010430910086308D00E7308C0049
:100DDE000D08F1000C08F00000302000B4000030C7
:100DEE00B5000030B2000030B3002E0010101A14FF
:100DFE00053024008E000800FA007A08031D082F23
:100E0E00092F0C2F20001616252F7A03031D102FE5
:100E1E00112F142F20009616252F02307A06031D4F
:100E2E00192F1A2F1D2F20001617252F03307A0683
:100E3E00031D222F232F252F200096170800863101
:100E4E00D2268731863197268731033087310327A3
:100E5E008731003087314F278731013087314F2757
:100E6E008731023087314F278731033087314F2743
:100E7E0087312930FD009630FC007F30890B452FDD
:100E8E00FC0B452FFD0B452F0000302F8031022823
:100E9E00FA007A08031D542F552F622F03102000DD
:100EAE00161E031403185C2F5F2F20001616612FD9
:100EBE0020001612992F7A03031D662F672F742FA9
:100ECE0003102000961E031403186E2F712F20009E
:100EDE009616732F20009612992F02307A06031D54
:100EEE00792F7A2F872F03102000161F0314031853
:100EFE00812F842F20001617862F20001613992F6E
:100F0E0003307A06031D8C2F8D2F992F031020008E
:100F1E00961F03140318942F972F20009617992FBE
:100F2E0020009613080020009601970118309800B3
:100F3E0099019A010F309100FF309200FF3093001B
:100F4E00FF309400073095000E303E00B800EF30B1
:100F5E00C300E730CE00FF30D9000730E400B901FE
:100F6E00C401CF01DA01E501BA01C501D001DB01EF
:100F7E00E601FF30BB00FF30C600FF30D100FF306E
:100F8E00DC000730E700FF30BC00FF30C700FF3049
:100F9E00D200FF30DD000730E80013303D00C50001
:100FAE0014303E00A30014303D00C60015303E0044
:100FBE00A400BD01BE01BF01C801C901CA01D30110
:100FCE00D401D501E901EA01EB010800703084007B
:100FDE00003085000A308631A92687312030840002
:100FEE000030850012308631A926873120008731E6
:100FFE00262FC33406340034003400340034003459
:10100E000034003400340034003400340034003432
:10101E000034003400340034003400340034003422
:10102E000034003400340034003400340034003412
:0E103E00003400340034003400340034003438
>>>>>>> initialization_and_modes
:020000040001F9
:0A000E008F3FFF3F9F3FFF3FFF3F82
:00000001FF
