:08000000803102288731ED2F49
:100D2E00080030009E1108002E00191499140800B6
:100D3E0086319826863108007B082000B7007A0895
:100D4E00B6000800640080010131890BAA2E003420
:100D5E00603031008D008F019101063093009201B9
:100D6E0008002E000C100B140030FA000030FB00AF
:100D7E008631A32686310800803023008F0008308C
:100D8E009000910192014F308D0086319B26863165
:100D9E002300901608008631AF26863187319A27B8
:100DAE0086318631E52686318631C32686318631F7
:100DBE009F2686318631B8268631080024000E1013
:100DCE008F0190010430910086308D00E7308C0049
:100DDE000D08F1000C08F00000302000B4000030C7
:100DEE00B5000030B2000030B3002E0010101A14FF
:100DFE00053024008E000800FA007A08031D082F23
:100E0E00092F0C2F20001616252F7A03031D102FE5
:100E1E00112F142F20009616252F02307A06031D4F
:100E2E00192F1A2F1D2F20001617252F03307A0683
:100E3E00031D222F232F252F200096170800863101
:100E4E00D2268731863197268731033087310327A3
:100E5E008731003087314F278731013087314F2757
:100E6E008731023087314F278731033087314F2743
:100E7E0087312930FD009630FC007F30890B452FDD
:100E8E00FC0B452FFD0B452F0000302F8031022823
:100E9E00FA007A08031D542F552F622F03102000DD
:100EAE00161E031403185C2F5F2F20001616612FD9
:100EBE0020001612992F7A03031D662F672F742FA9
:100ECE0003102000961E031403186E2F712F20009E
:100EDE009616732F20009612992F02307A06031D54
:100EEE00792F7A2F872F03102000161F0314031853
:100EFE00812F842F20001617862F20001613992F6E
:100F0E0003307A06031D8C2F8D2F992F031020008E
:100F1E00961F03140318942F972F20009617992FBE
:100F2E0020009613080020009601970118309800B3
:100F3E0099019A010F309100FF309200FF3093001B
:100F4E00FF309400073095000E303E00B800EF30B1
:100F5E00C300E730CE00FF30D9000730E400B901FE
:100F6E00C401CF01DA01E501BA01C501D001DB01EF
:100F7E00E601FF30BB00FF30C600FF30D100FF306E
:100F8E00DC000730E700FF30BC00FF30C700FF3049
:100F9E00D200FF30DD000730E80013303D00C50001
:100FAE0014303E00A30014303D00C60015303E0044
:100FBE00A400BD01BE01BF01C801C901CA01D30110
:100FCE00D401D501E901EA01EB010800703084007B
:100FDE00003085000A308631A92687312030840002
:100FEE000030850012308631A926873120008731E6
:100FFE00262FC33406340034003400340034003459
:10100E000034003400340034003400340034003432
:10101E000034003400340034003400340034003422
:10102E000034003400340034003400340034003412
:0E103E00003400340034003400340034003438
:020000040001F9
:0A000E008F3FFF3F9F3FFF3FFF3F82
:00000001FF
