:10000000803102288731EB2F640080010131890B98
:10001000052800347008710403190F2810283728A8
:100020000130F4001A280130F035F10D890B142845
:100030000130F407F11F1D281E28132871087302D0
:10004000031D242870087202031C272828282C2846
:100050007008F2027108F33B0130F136F00C890BA5
:100060002D280130F402031D362837281E28730876
:10007000F1007208F00008007208730403194128A7
:100080004228482872087304031D472848284D2831
:1000900070088A31362280319228720886008701E2
:1000A000493116000104031956285728752872088B
:1000B000860087014931403FF400413FF500720856
:1000C000860087014231403FF600413FF700770844
:1000D000803AF8007508803A7802031D7128740888
:1000E0007602031874287528922872088600870102
:1000F00042317208840073088500003FF400013F1C
:10010000F500403F74078400413F753D850070084D
:100110008000720886008701423101308107413139
:100120000318810A0800F501F11F972898289F28D5
:10013000F009F109F00A0319F10A0130F500F31F83
:10014000A228A328AA28F209F309F20A0319F30A3C
:100150000130F506F601F701700871040319B128A2
:10016000B228DF280130F400BC280130F035F10D51
:10017000890BB6280130F407F11FBF28C028B52825
:100180000130F635F70D890BC12871087302031D84
:10019000CB2870087202031CCE28CF28D428700800
:1001A000F2027108F33B76140130F136F00C890B42
:1001B000D5280130F402031DDE28DF28C028750889
:1001C0000319E328E428E928F609F709F60A0319D0
:1001D000F70A7708F1007608F00008002000EB012C
:1001E0004908EB074A08EB074B08EB074C08EB07FD
:1001F0004D08EB074E08EB074F08EB075008EB07DD
:100200005108EB075208EB07EC016C080A3EE700C7
:10021000003003180130E8005330E9000030EA00F4
:1002200067086907860068086A3D87000108EB07D0
:100230006C08533E860087010030873D0108EB07BC
:100240006C080F3EE700003003180130E80053301F
:10025000E9000030EA0067086907860068086A3D1F
:1002600087000108EB076C08053EE7000030031823
:100270000130E8005330E9000030EA006708690700
:10028000860068086A3D87000108EB070130EC072B
:1002900005306C02031C4D294E2905296B08080006
:1002A0000030F0007030F1008A319022813120005E
:1002B000A1000130F0007030F1008A3190228131CC
:1002C0002000A2000230F0007030F1008A3190224C
:1002D00081312000A3000330F0007030F1008A313A
:1002E000902281312000A4000430F0007030F10031
:1002F0008A31902281312000A5000530F000703055
:10030000F1008A31902281312000A6000630F000F1
:100310007030F1008A31902281312000A70007302F
:10032000F0007030F1008A31902281312000A80065
:100330000830F0007030F1008A31902281312000C5
:10034000A9000930F0007030F1008A31902281312B
:100350002000AA002130860000308700723084001F
:10036000003085000A30A00016001A00A00BB42946
:1003700008004230F0007030F1002A30F2008B317A
:100380006A2381310030F0007030F1002000200835
:10039000F2008B316A2381310130F0007030F100BE
:1003A00020002108F2008B316A2381310230F000F5
:1003B0007030F10020002208F2008B316A23813175
:1003C0000330F0007030F10020002308F2008B3180
:1003D0006A2381310430F0007030F10020002408DD
:1003E000F2008B316A2381310530F0007030F1006A
:1003F00020002508F2008B316A2381310630F0009D
:100400007030F10020002608F2008B316A23813120
:100410000730F0007030F10020002708F2008B3127
:100420006A2381310830F0007030F1002000280884
:10043000F2008B316A2381310930F0007030F10015
:1004400020002908F2008B316A2381310800F8016D
:1004500078080A3EF000703003187130F100780817
:10046000203E860087010030873D0108F2008B3175
:100470006A23823178080F3EF00070300318713023
:10048000F1007808053EF400003003180130F50053
:100490002030F6000030F7007408760786007508F3
:1004A000773D87000108F2008B316A23823178089A
:1004B000143EF000703003187130F10078080A3EE5
:1004C000F400003003180130F5002030F600003051
:1004D000F7007408760786007508773D87000108E5
:1004E000F2008B316A2382317808193EF0007030B7
:1004F00003187130F10078080F3EF4000030031843
:100500000130F5002030F6000030F700740876075F
:1005100086007508773D87000108F2008B316A2359
:1005200082310130F80705307802031C982A992A95
:10053000282A08004130F700EE30890B9D2AF70B7E
:100540009D2A003230308D316325823134308D3137
:1005500063258231A630890BAB2A003230308D31D1
:10056000632582310730F7007D30890BB52AF70B00
:10057000B52A000030308D316325823134308D3121
:1005800063258231A630890BC32A003230308D3189
:10059000632582312130890BCB2A000030308D3128
:1005A0006325823134308D3163258231A630890B49
:1005B000D72A003230308D31632582312130890BCA
:1005C000DF2A000020308D316325823124308D31C7
:1005D00063258231A630890BEB2A003220308D3121
:1005E000632582310730F7007D30890BF52AF70B40
:1005F000F52A0000F2012830833199238231F2017B
:100600000630833199238231F2010F3083319923EF
:100610008231F20101308331992382311A30F7009F
:10062000F830890B112BF70B112B0032080020003A
:10063000C8014808343E860087010030873D4808DD
:100640000A3EF000703003187130F1008A319022B8
:100650008331810020004808053EF2000030031875
:100660000130F3003430F4000030F50072087407F4
:1006700086007308753D870048080F3EF000703013
:1006800003187130F1008A319022833181002000FB
:1006900048080A3EF200003003180130F3003430FD
:1006A000F4000030F5007208740786007308753D89
:1006B00087004808143EF000703003187130F100D4
:1006C0008A31902283318100200048080F3EF200D9
:1006D000003003180130F3003430F4000030F5002E
:1006E0007208740786007308753D87004808193E34
:1006F000F000703003187130F1008A31902283319C
:10070000810001302000C80705304802031C892BF6
:100710008A2B192B3430860000308700203084006B
:10072000003085001430F20016001A00F20B942BF2
:100730000800F4007408F039F5007408F300043080
:10074000F335890BA02B7308F039F60023000F0C4A
:10075000890C0139F30011081F397304031DB12BF3
:10076000B22BA62B11141118B62BB72BB32B0F0CD1
:10077000890C0139F30011081F397304031DC12BC3
:10078000C22BB72B4E308F311127833123000F0C32
:10079000890C0139F30011081F397304031DD12B93
:1007A000D22BC62B7508720408388F31112783317C
:1007B00023000F0C890C0139F30011081F39730451
:1007C000031DE32BE42BD82B750872040C388F31F2
:1007D0001127833123000F0C890C0139F300110814
:1007E0001F397304031DF52BF62BEA2B0000750847
:1007F000720408388F311127833123000F0C890CC4
:100800000139F30011081F397304031D082C092C4A
:10081000FD2B7608720408388F31112783312300AD
:100820000F0C890C0139F30011081F397304031DE3
:100830001A2C1B2C0F2C760872040C388F311127C0
:10084000833123000F0C890C0139F30011081F3983
:100850007304031D2C2C2D2C212C0000760872040F
:1008600008388F311127833123000F0C890C01398F
:10087000F30011081F397304031D3F2C402C342C46
:1008800011151119442C452C412C1030890B462C84
:10089000003208002000220886008701403FA400A3
:1008A000413FA50024088400250885001200253A50
:1008B000031D5B2C5C2CFF2C220886008701013075
:1008C000810741310318810A2200CA01CB0100309F
:1008D0002100E700FF302200CC00FF30CD002000D7
:1008E000220886008701403FA800413FA900280850
:1008F0008400290885001200753A031D802C812C84
:10090000F52C230886008701010884008501023048
:100910008107003FAA00013FAB002808013EA40068
:100920000030293DA5002208860087012408C03F29
:100930002508C13FEC2C2030AE000130AE022E085D
:10094000203E8600013087000A30F0000030F100C0
:100950002B08F3002A08F20080310A208431700845
:10096000303E81000A30F0000030F10020002B08FA
:10097000F3002A08F2008C31E82484317108200049
:10098000AB007008AA002A082B040319C82CC92C34
:10099000E52C2E08031DCD2CCE2C9D2CE52C2E08ED
:1009A000203E8600013087000108A400A50124082C
:1009B000F0002508F1002108F3002008F200803142
:1009C0003C20843101302000AE0720302E06031D6C
:1009D000EA2CEB2CCF2C192D28088400290885003F
:1009E0000008753A03199B2CF52C2000220886007C
:1009F00087010130810741310318810A192D22082E
:100A000086008701403FA400413FA50024088400E0
:100A1000250885000008A600A7012608F000270881
:100A2000F1002108F3002008F20080313C208431DD
:100A3000F52C0800F60023000F0C890C0139F20098
:100A400011081F397204031D262D272D1B2D11148B
:100A500011182B2D2C2D282D0F0C890C0139F2008B
:100A600011081F397204031D362D372D2C2D4E30E1
:100A70008F311127853123000F0C890C0139F200C9
:100A800011081F397204031D462D472D3B2D760892
:100A9000FA388F311127853123000F0C890C013969
:100AA000F20011081F397204031D572D582D4C2DCB
:100AB0007608FE388F311127853123000F0C890C01
:100AC0000139F20011081F397204031D682D692DC8
:100AD0005D2D00002300911491186F2D702D6C2D49
:100AE0000F0C890C0139F20011081F397204031D23
:100AF0007A2D7B2D702D4F308F31112785312300BA
:100B00000F0C890C0139F20011081F397204031D02
:100B10008A2D8B2D7F2D8B3184238531F40023008A
:100B20000F0C890C0139F20011081F397204031DE2
:100B30009A2D9B2D8F2D91161116111AA02DA12DD6
:100B40009D2D91149118A52DA62DA22D0F0C890C69
:100B50000139F20011081F397204031DB02DB12DA7
:100B6000A62D4E308F311127853123000F0C890CB3
:100B70000139F20011081F397204031DC02DC12D67
:100B8000B52D7608FA388F311127853123000F0CE7
:100B9000890C0139F20011081F397204031DD12D8F
:100BA000D22DC62D7608FE388F31112785312300CE
:100BB0000F0C890C0139F20011081F397204031D52
:100BC000E22DE32DD72D0000230091149118E92D7B
:100BD000EA2DE62D0F0C890C0139F20011081F399E
:100BE0007204031DF42DF52DEA2D4F308F3111279E
:100BF000853123000F0C890C0139F20011081F39CF
:100C00007204031D042E052EF92D8B3184238531AA
:100C1000F50023000F0C890C0139F20011081F396F
:100C20007204031D142E152E092E91161116111A79
:100C30001A2E1B2E172E911491181F2E202E1C2EAB
:100C40000F0C890C0139F20011081F397204031DC1
:100C50002A2E2B2E202E4E308F3111278531230046
:100C60000F0C890C0139F20011081F397204031DA1
:100C70003A2E3B2E2F2E7608FA388F3111278531E8
:100C800023000F0C890C0139F20011081F3972047E
:100C9000031D4B2E4C2E402E11151119502E512E86
:100CA0004D2E7508F2000430F236890B542E0F30A9
:100CB0007205F3007408F03973040800FB00DC2FA0
:100CC0007808860087010A30F0000030F10021002A
:100CD0006C08F900FA017908F2007A08F300803113
:100CE000932086317008303E8100780A86008701A3
:100CF0000A30F0000030F10021006C08F900FA0120
:100D00007908F2007A08F3008F315C278631700889
:100D1000303E81007808023E860087018101EA2F7B
:100D20007808860087010A30F0000030F1002100C9
:100D30006D08F900FA017908F2007A08F3008031B1
:100D4000932086317008303E8100780A8600870142
:100D50000A30F0000030F10021006D08F900FA01BE
:100D60007908F2007A08F3008F315C278631700829
:100D7000303E81008A2E7808860087010A30F00014
:100D80000030F10021006E08F900FA017908F20044
:100D90007A08F3008031932086317008303E81005C
:100DA000780A860087010A30F0000030F100210047
:100DB0006E08F900FA017908F2007A08F3008F3121
:100DC0005C2786317008303E81008A2E78088600C4
:100DD00087010A30F0000030F10021006C08F900B2
:100DE000FA017908F2007A08F30080319320863105
:100DF0007008303E8100780A860087010A30F000D2
:100E00000030F10021006C08F900FA017908F200C5
:100E10007A08F3008F315C2786317008303E8100FC
:100E20007808023E860087013A3081007808033E48
:100E3000860087010A30F0000030F10021006D08C3
:100E4000F900FA017908F2007A08F3008031932062
:100E500086317008303E81007808043E86008701A4
:100E60000A30F0000030F10021006D08F900FA01AD
:100E70007908F2007A08F3008F315C278631700818
:100E8000303E81007808053E860087018101EA2F07
:100E90007808860087010A30F0000030F100210058
:100EA0006C08F900FA017908F2007A08F300803141
:100EB000932086317008303E8100780A86008701D1
:100EC0000A30F0000030F10021006C08F900FA014E
:100ED0007908F2007A08F3008F315C2786317008B8
:100EE000303E81007808023E860087013A3081005A
:100EF0007808033E860087010A30F0000030F100D8
:100F000021006D08F900FA017908F2007A08F3006F
:100F10008031932086317008303E81007808043E8D
:100F2000860087010A30F0000030F10021006D08D2
:100F3000F900FA017908F2007A08F3008F315C2792
:100F400086317008303E81007808053E86008701B2
:100F50003A3081007808063E860087010A30F000AA
:100F60000030F10021006E08F900FA017908F20062
:100F70007A08F3008031932086317008303E81007A
:100F80007808073E860087010A30F0000030F10043
:100F900021006E08F900FA017908F2007A08F300DE
:100FA0008F315C2786317008303E81007808083E1A
:100FB000860087018101EA2F7B08003A0319602E21
:100FC000013A0319902E033A0319BB2E013A031973
:100FD000E62E482F0800FC01FD01D73084000030C8
:100FE00085001830803104208731203084000130A2
:100FF0008500483080310420873120008C31682CF6
:10146C0008001930080030009E11080022004808BE
:10147C000800220049080800210069080800210022
:10148C00131408002E001914991408008A313922FB
:10149C008A3108002100E9016A08080002308E3107
:1014AC007B268A310800F000700821009E0008009D
:1014BC0071082200ED007008EC00080021000D08F6
:1014CC00F1000C08F0000800F00070082100EA00A0
:1014DC000130E9000800F700F20177088331992305
:1014EC008A31080003102100131C03140030093D3D
:1014FC000800F700F201F20A7708833199238A3148
:10150C000800603031008D008F019101063093008E
:10151C009201080030001E1771089B0070089A0099
:10152C001E141C080800F20072082100EE0070085E
:10153C00ED007108EC0008002E000C100B140030AC
:10154C00F0000030F1008A315E228A3108008030D0
:10155C0023008F0008309000910192014F308D00D4
:10156C008A3148228A3123009016080000308531D8
:10157C001A258A3180390319C42AC52ACA2A01308E
:10158C00F7000030F800CC2AF701F80108008A3186
:10159C0087228A318F31AD278A318B31DB238A3117
:1015AC008A31AD228A318A314C228A318A31A22287
:1015BC008A310800F90079080319E52AE62AE92A94
:1015CC00C030FA00EB2A8030FA0078080F397A0420
:1015DC00FA007A088A3171228A3108008B31FC2397
:1015EC008A312000C8004508B4004E30B500903058
:1015FC00B6004808C600C7014608B7004708B8003F
:10160C008B319E238A3108008A3137228B3120009E
:10161C00C8004508B4004930B5009030B600480801
:10162C00C600C7014608B7004708B8008B319E2397
:10163C008B3108007008F6002B2B760886000130E1
:10164C008700720881000130F6070130F402003087
:10165C00F53B740A031D362B750A031D362B372BED
:10166C00232B08003D2B20088A317F228B317908EF
:10167C00FB007808FA00F80A0319F90A7A088400C2
:10168C007B08850000082000A0002008031D4F2BBC
:10169C00502B392B080020002408F80023088A312D
:1016AC00E0228B318A31BC228B3177087804031D00
:1016BC00602B612B582B20002208F9002108F80020
:1016CC008B3138238B3108000B0D0B0D0139F300D6
:1016DC0030001E171E1571089B0070089A007208C6
:1016EC009C008B137D089F007C089F009E14730C3C
:1016FC00031C8B1303188B171E1108000F302300CB
:10170C001005F0000830700603198D2B8E2B972BCB
:10171C000F301005F0000B307006031D962B972B25
:10172C00982B91150F1C9B2B9C2B982B0C080800AD
:10173C0037302000B9003408BA00BB01BC01BD0130
:10174C00C301C4013A30AF000030B0003608B2001B
:10175C003508B1003930B3008B31BC238B312000FC
:10176C0034083C07860087018101080020003208FC
:10177C00FB003108FA00CE2B20003008A1002F0806
:10178C00A0007A30A2003308A30084314A248B31A4
:10179C007A0884007B0885001200031DD62BD72BFA
:1017AC00C22B2000AF01B001080024000E108F01E5
:1017BC0090010430910086308D00E7308C000D08CC
:1017CC002100E60024000C082100E5000030220076
:1017DC00EA000030EB000030E8000030E9002E0099
:1017EC0010101A14053024008E00080000308A31C5
:1017FC0059228B318A3145228B318A3178228B31B7
:10180C00003A03190A2C0B2C032C8A3164228B31DD
:10181C007108F5007008F4007508F3007408F20004
:10182C000730F336F20C890B172C7208F600760889
:10183C000800F0007008031D242C252C282C2000F7
:10184C001616412C7003031D2C2C2D2C302C200033
:10185C009616412C02307006031D352C362C392C73
:10186C0020001617412C03307006031D3E2C3F2C14
:10187C00412C20009617080082319A228C3151306D
:10188C00F800043086315E268C312100EB010130EA
:10189C008C311F248C3149302000C5008A31F42250
:1018AC008C314D302000C5008B310A238C314330F4
:1018BC002000A1009030A200A301A4018B31512380
:1018CC008C3108008A31CD228C318B170B178C315F
:1018DC0090248C318E3132268C318A3142228C31DB
:1018EC00003A03197A2C7B2C8C2C8A3150228C31A7
:1018FC002100D6005608031D842C852C892C8C3194
:10190C0042248C318C2C8A3154228C316300732C00
:10191C0080310228210093132E00171097100D1000
:10192C008D102200D201D301D001D1012100E80198
:10193C0022008E018F0190019101920193018D0182
:10194C0021009E019D019B019C0194011830950082
:10195C001030960097019A010F30980099012E00D3
:10196C00171097108430210093000800A0308600D7
:10197C000030870049308400003085000A30200098
:10198C00ED0016001A00ED0BC72CAA3086000030B3
:10199C00870053308400003085001430EE001600B0
:1019AC001A00EE0BD52C8031EE208C312000EF008C
:1019BC004330F0007030F1006F08F2008B316A2375
:1019CC008C310800F501F601700871040319EF2C35
:1019DC00F02C1D2D0130F400FA2C0130F035F10DF6
:1019EC00890BF42C0130F407F11FFD2CFE2CF32C89
:1019FC000130F535F60D890BFF2C71087302031DB0
:101A0C00092D70087202031C0C2D0D2D122D70085F
:101A1C00F2027108F33B75140130F136F00C890BAE
:101A2C00132D0130F402031D1C2D1D2DFE2C7608E8
:101A3C00F1007508F00008005430F0000130F1009E
:101A4C000030F200F3001430F4000030F5008B315C
:101A5C0020238D31543086000130870020308400E3
:101A6C00003085001430F90016001A00F90B3A2DDD
:101A7C00823127228D3103302200C0000530C10095
:101A8C00C2010C30C300C401C5011930C6000530B9
:101A9C00C700C801C90140308600013087002030E2
:101AAC008400003085000A30F90016001A00F90B8A
:101ABC005B2D8131B9218D310800F30023000F0C0F
:101ACC00890C0139F20011081F397204031D6F2DA6
:101ADC00702D642D11141118742D752D712D0F0C82
:101AEC00890C0139F20011081F397204031D7F2D76
:101AFC00802D752D4E308F3111278D3123000F0C19
:101B0C00890C0139F20011081F397204031D8F2D45
:101B1C00902D842D73088F3111278D3123000F0CDC
:101B2C00890C0139F20011081F397204031D9F2D15
:101B3C00A02D942D11151119A42DA52DA12D080042
:101B4C00BE308600003087004030840001308500B4
:101B5C000A302100C90016001A00C90BB12D480823
:101B6C000319B92DBA2DEB2DBE308600003087003D
:101B7C0020308400003085000A30C90016001A009D
:101B8C00C90BC42D8131B9218D31BE308600003096
:101B9C008700A0308400003085000A302100C90085
:101BAC0016001A00C90BD62D543086000130870060
:101BBC00AA308400003085001430CA0016001A00C8
:101BCC00CA0BE42D8C31BC248D310800BE3086004C
:101BDC00003087005430840001308500143021001F
:101BEC00D30016001A00D30BF72D52080319FF2D42
:101BFC00002E312EBE30860000308700203084004D
:101C0C00003085001430D30016001A00D30B0A2EB6
:101C1C00823127228D314030860001308700A03080
:101C2C008400003085000A302100D30016001A0011
:101C3C00D30B1C2EBE30860000308700AA308400E7
:101C4C00003085001430D40016001A00D40B2A2E54
:101C5C008C31BC248D3108008E31C6268E31003A71
:101C6C000319392E3A2E682E813150218E31723063
:101C7C00860000308700BE308400003085000A30BA
:101C8C002100D50016001A00D50B482EC8018D3145
:101C9C00A6258E31833117238E312000203086000B
:101CAC0000308700BE3084000030850014302100E5
:101CBC00D50016001A00D50B5F2ED2018D31EC2504
:101CCC008E316B2E8D3122258E318A313F228E3111
:101CDC00F000F1018A313C228E318A3199228E3109
:101CEC0000308A316A228E310800F0007008031D22
:101CFC00802E812E8E2E03102000161E0314031826
:101D0C00882E8B2E200016168D2E20001612C52E16
:101D1C007003031D922E932EA02E03102000961EEE
:101D2C00031403189A2E9D2E200096169F2E200029
:101D3C009612C52E02307006031DA52EA62EB32EAC
:101D4C0003102000161F03140318AD2EB02E200014
:101D5C001617B22E20001613C52E03307006031D65
:101D6C00B82EB92EC52E03102000961F031403188D
:101D7C00C02EC32E20009617C52E200096130800E7
:101D8C00813150218E31723086000030870049300D
:101D9C008400003085000A302000ED0016001A0087
:101DAC00ED0BD42E833117238E312000203086008A
:101DBC000030870053308400003085001430EE0072
:101DCC0016001A00EE0BE62E8031EE208E3121002B
:101DDC00A0004230F0007030F1008A3190228E3138
:101DEC002100A1004330F0007030F1008A319022C4
:101DFC008E312100A20022082006031D062F072F7A
:101E0C000F2F2A302106031D0C2F0D2F0F2F013001
:101E1C00102F00300800F100710823008C00901F77
:101E2C00182F192F1A2F5B2F0F301005F0000830C8
:101E3C0070060319222F232F392F0F301005F000B5
:101E4C000B30700603192B2F2C2F392F10162E0048
:101E5C000F1C312F322F2D2F23000F19362F372F18
:101E6C005B2F0F085B2F0F301005F0000830700649
:101E7C000319412F422F4B2F0F301005F0000B3060
:101E8C007006031D4A2F4B2F5B2F0F184E2F4F2F11
:101E9C004B2F0F0C890C0139F00011081F397004FD
:101EAC00031D592F5A2F4F2F11080800F501F31F4E
:101EBC00602F612F682FF209F309F20A0319F30A54
:101ECC000130F500F11F6B2F6C2F712FF009F10908
:101EDC00F00A0319F10A700871040319762F772F91
:101EEC009E2F0130F400812F0130F035F10D890B5C
:101EFC007B2F0130F407F11F842F852F7A2F710867
:101F0C007302031D8B2F70087202031C8E2F8F2FF0
:101F1C00932F7008F2027108F33B0130F136F00C8C
:101F2C00890B942F0130F402031D9D2F9E2F852FBA
:101F3C0075080319A22FA32FA82FF209F309F20A8F
:101F4C000319F30A7308F1007208F000080020006E
:101F5C00960197011830980099019A010F30910061
:101F6C00FF309200FF309300FF3094000730950053
:101F7C000E303E00B800EF30C300E730CE00FF302B
:101F8C00D9000730E400B901C401CF01DA01E50141
:101F9C00BA01C501D001DB01E601FF30BB00FF3007
:101FAC00C600FF30D100FF30DC000730E700FF3007
:101FBC00BC00FF30C700FF30D200FF30DD0007301F
:101FCC00E80013303D00C50014303E00A30014306F
:101FDC003D00C60015303E00A400BD01BE01BF018E
:101FEC00C801C901CA01D301D401D501E901EA0133
:101FFC00EB010800543469346D3465347234313477
:10200C00203469346E3474346534723472347534FB
:10201C0070347434203474347234693467346734F3
:10202C00653472346534643421340A340034AD348C
:10203C000A340034003400340034003400340034EA
:10204C0000340034003400340034003400340034E4
:10205C0000340034003400340034003400340034D4
:10206C0000340034003400340034003400340034C4
:10207C000034003400340034003463346C346F3476
:10208C0063346B34003425347534203443340034D9
:0A209C004C34203425347534003430
:020000040001F9
:0A000E008F3FFF3F9F3FFF3FFF3F82
:00000001FF
