:0400000080313128F2
:1000060008007E1480310B1F09280A282F282E008D
:100016001A1C0E280F281728101C12281328172818
:100026008B31E62380312F28991C1A281B28232878
:100036008F1C1E281F2823288A31872280312F28CB
:10004600191C262827282F280F1C2A282B282F285A
:100056008A318B2280312F287E1009008031332887
:10006600F801F901FA01FB01FC01FD01DD30840014
:100076000030850012308A31C2228031203084005F
:100086000130850020308A31C22280317E10200066
:100096008D314B2D2000A700D92924088600870121
:1000A6000A30F4000030F5007B08A500A6012508FB
:1000B600F6002608F70087311E2780317408303E87
:1000C60081002000240A860087010A30F4000030EF
:1000D600F5007B08A500A6012508F6002608F7000E
:1000E6008F31AE2780317408303E8100200024080D
:1000F600023E8600870181010630E7292408860032
:1001060087010A30F4000030F5007C08A500A6013E
:100116002508F6002608F70087311E278031740867
:10012600303E81002000240A860087010A30F40050
:100136000030F5007C08A500A6012508F600260873
:10014600F7008F31AE2780317408303E81002000E1
:100156002408023E8600870181010330E72924082E
:10016600860087010A30F4000030F5007D08A500FE
:10017600A6012508F6002608F70087311E278031DC
:100186007408303E81002000240A860087010A3068
:10019600F4000030F5007D08A500A6012508F6004C
:1001A6002608F7008F31AE2780317408303E810073
:1001B60020002408023E8600870181010030E729DD
:1001C6002408860087010A30F4000030F5007C0818
:1001D600A500A6012508F6002608F70087311E2788
:1001E60080317408303E81002000240A8600870191
:1001F6000A30F4000030F5007C08A500A6012508A9
:10020600F6002608F7008F31AE2780317408303E9D
:10021600810020002408023E860087013A308100D2
:100226002408033E860087010A30F4000030F500FA
:100236007B08A500A6012508F6002608F7008731E9
:100246001E2780317408303E810020002408043EB9
:10025600860087010A30F4000030F5007B08A5000F
:10026600A6012508F6002608F7008F31AE27803153
:100276007408303E810020002408053E8600870170
:100286008101B0282408860087010A30F400003076
:10029600F5007D08A500A6012508F6002608F7004A
:1002A60087311E2780317408303E81002000240AE1
:1002B600860087010A30F4000030F5007D08A500AD
:1002C600A6012508F6002608F7008F31AE278031F3
:1002D6007408303E810020002408023E8600870113
:1002E6003A3081002408033E860087010A30F40074
:1002F6000030F5007C08A500A6012508F6002608B2
:10030600F70087311E2780317408303E81002000B7
:100316002408043E860087010A30F4000030F50008
:100326007C08A500A6012508F6002608F7008F31EF
:10033600AE2780317408303E810020002408053E37
:10034600860087013A3081002408063E8600870130
:100356000A30F4000030F5007B08A500A601250848
:10036600F6002608F70087311E2780317408303ED4
:10037600810020002408073E860087010A30F40029
:100386000030F5007B08A500A6012508F600260822
:10039600F7008F31AE2780317408303E810020008F
:1003A6002408083E860087018101E1282708003AD3
:1003B60003195028013A03198128033A0319B22870
:1003C600013A0319E328452908002000A20023006A
:1003D6000F0C890C0139F60011081F397604031D2C
:1003E600F529F629EA2911141118FA29FB29F72902
:1003F6000F0C890C0139F60011081F397604031D0C
:10040600052A062AFB294E308E31C9268131230062
:100416000F0C890C0139F60011081F397604031DEB
:10042600152A162A0A2A20002208FA388E31C926E9
:10043600813123000F0C890C0139F60011081F3990
:100446007604031D272A282A1C2A20002208FE38A3
:100456008E31C926813123000F0C890C0139F60033
:1004660011081F397604031D392A3A2A2E2A00005C
:10047600230091149118402A412A3D2A0F0C890C19
:100486000139F60011081F397604031D4B2A4C2A40
:10049600412A4F308E31C926813123000F0C890C39
:1004A6000139F60011081F397604031D5B2A5C2A00
:1004B600502A8C31602481312000A00023000F0CCB
:1004C600890C0139F60011081F397604031D6C2AC0
:1004D6006D2A612A91161116111A722A732A6F2A29
:1004E60091149118772A782A742A0F0C890C0139ED
:1004F600F60011081F397604031D822A832A782AFA
:100506004E308E31C926813123000F0C890C0139FA
:10051600F60011081F397604031D922A932A872AAA
:1005260020002208FA388E31C926813123000F0CAB
:10053600890C0139F60011081F397604031DA42A17
:10054600A52A992A20002208FE388E31C926813133
:1005560023000F0C890C0139F60011081F397604A7
:10056600031DB62AB72AAB2A00002300911491185E
:10057600BD2ABE2ABA2A0F0C890C0139F6001108C9
:100586001F397604031DC82AC92ABE2A4F308E3168
:10059600C926813123000F0C890C0139F600110898
:1005A6001F397604031DD82AD92ACD2A8C31602416
:1005B60081312000A10023000F0C890C0139F600BF
:1005C60011081F397604031DE92AEA2ADE2A911644
:1005D6001116111AEF2AF02AEC2A91149118F42A0E
:1005E600F52AF12A0F0C890C0139F60011081F397A
:1005F6007604031DFF2A002BF52A4E308E31C926BC
:10060600813123000F0C890C0139F60011081F39BE
:100616007604031D0F2B102B042B20002208FA381A
:100626008E31C926813123000F0C890C0139F60061
:1006360011081F397604031D212B222B162B1115A9
:100646001119262B272B232B20002108F600043016
:10065600F636890B2B2B0F307605F7002008F0397C
:10066600770408002000A0002008F039A100200827
:10067600F7000430F735890B3D2B7708F039A200D7
:1006860023000F0C890C0139F70011081F39770474
:10069600031D4E2B4F2B432B11141118532B542B88
:1006A600502B0F0C890C0139F70011081F397704FC
:1006B600031D5E2B5F2B542B4E308E31C9268331A2
:1006C60023000F0C890C0139F70011081F39770434
:1006D600031D6E2B6F2B632B200021087604083830
:1006E6008E31C926833123000F0C890C0139F7009E
:1006F60011081F397704031D812B822B762B2000CE
:10070600210876040C388E31C926833123000F0C5C
:10071600890C0139F70011081F397704031D942B42
:10072600952B892B000020002108760408388E318D
:10073600C926833123000F0C890C0139F7001108F3
:100746001F397704031DA82BA92B9D2B20002208F7
:10075600760408388E31C926833123000F0C890CA4
:100766000139F70011081F397704031DBB2BBC2B79
:10077600B02B2000220876040C388E31C92683312E
:1007860023000F0C890C0139F70011081F39770473
:10079600031DCE2BCF2BC32B00002000220876048E
:1007A60008388E31C926833123000F0C890C013994
:1007B600F70011081F397704031DE22BE32BD72B13
:1007C60011151119E72BE82BE42B1030890BE92BB7
:1007D600003208002000CC014C08383E8600870114
:1007E6000030873D4C080A3EF40070300318713023
:1007F600F5008B310D238331810020004C08053E26
:10080600B400003003180130B5003830B6000030AF
:10081600B7003408360786003508373D87004C0890
:100826000F3EF400703003187130F5008B310D2344
:100836008331810020004C080A3EB40000300318C2
:100846000130B5003830B6000030B700340836073E
:1008560086003508373D87004C08143EF40070309A
:1008660003187130F5008B310D2383318100200090
:100876004C080F3EB400003003180130B500383084
:10088600B6000030B7003408360786003508373D15
:1008960087004C08193EF400703003187130F500DB
:1008A6008B310D238331810001302000CC070530C8
:1008B6004C02031C5F2C602CEF2B38308600003076
:1008C600870020308400003085001430B400160004
:1008D6001A00B40B6A2C080041302000A300EE3049
:1008E600890B732CA30B732C000030308D31B62589
:1008F600843134308D31B6258431A630890B812C74
:10090600003230308D31B625843107302000A30007
:100916007D30890B8C2CA30B8C2C30308D31B62579
:10092600843134308D31B6258431A630890B992C2B
:10093600003230308D31B62584312130890BA12C1F
:10094600000030308D31B625843134308D31B625F6
:100956008431A630890BAD2C003230308D31B6256E
:1009660084312130890BB52C000020308D31B6251D
:10097600843124308D31B6258431A630890BC12CC3
:10098600003220308D31B625843107302000A30097
:100996007D30890BCC2CA30BCC2CF601283083316F
:1009A60035238431F6010630833135238431F6014F
:1009B6000F30833135238431F601013083313523FD
:1009C600843103302000A3009730890BE82CA30B59
:1009D600E82C003208002100A00120004D0821006B
:1009E600A00720004E082100A00720004F08210084
:1009F600A007200050082100A00720005108210070
:100A0600A007200052082100A0072000530821005B
:100A1600A007200054082100A00720005508210047
:100A2600A007200056082100A007A10121080A3EC0
:100A36002000EB00003003180130EC005730ED00C9
:100A46000030EE006B086D0786006C086E3D87006F
:100A560001082100A0072108573E860087010030C3
:100A6600873D0108A00721080F3E2000EB0000305B
:100A760003180130EC005730ED000030EE006B0833
:100A86006D0786006C086E3D870001082100A007EF
:100A96002108053E2000EB00003003180130EC0071
:100AA6005730ED000030EE006B086D0786006C08CD
:100AB6006E3D870001082100A0070130A10705301F
:100AC6002102031C672D682D192D2008080020001F
:100AD600B80138080A3EF400703003187130F5008A
:100AE6003808203E860087010030873D0108F60061
:100AF6008C3146248531200038080F3EF4007030D2
:100B060003187130F5003808053EB40000300318AC
:100B16000130B5002030B6000030B7003408360783
:100B260086003508373D87000108F6008C314624DB
:100B3600853120003808143EF400703003187130F7
:100B4600F50038080A3EB400003003180130B5003D
:100B56002030B6000030B700340836078600350866
:100B6600373D87000108F6008C3146248531200088
:100B76003808193EF400703003187130F500380853
:100B86000F3EB400003003180130B5002030B60027
:100B96000030B7003408360786003508373D870031
:100BA6000108F6008C314624853101302000B80753
:100BB60005303802031CE02DE12D6C2D0800423073
:100BC600F4007030F5002A30F6008C314624853169
:100BD6000030F4007030F50020002008F6008C315B
:100BE600462485310130F4007030F50020002108DC
:100BF600F6008C31462485310230F4007030F50061
:100C060020002208F6008C31462485310330F4009A
:100C16007030F50020002308F6008C31462485311B
:100C26000430F4007030F50020002408F6008C3102
:100C3600462485310530F4007030F5002000250883
:100C4600F6008C31462485310630F4007030F5000C
:100C560020002608F6008C31462485310730F40042
:100C66007030F50020002708F6008C3146248531C7
:100C76000830F4007030F50020002808F6008C31AA
:100C8600462485310930F4007030F500200029082B
:100C9600F6008C314624853108000030F4007030AF
:100CA600F5008B310D2386312000AA000130F400B7
:100CB6007030F5008B310D2386312000AB000230F9
:100CC600F4007030F5008B310D2386312000AC0026
:100CD6000330F4007030F5008B310D23863120008F
:100CE600AD000430F4007030F5008B310D238631F1
:100CF6002000AE000530F4007030F5008B310D2376
:100D060086312000AF000630F4007030F5008B31DC
:100D16000D2386312000B0000730F4007030F50056
:100D26008B310D2386312000B1000830F40070307D
:100D3600F5008B310D2386312000B2000930F40016
:100D46007030F5008B310D2386312000B3002A3038
:100D560086000030870020308400003085000A308D
:100D6600F60016001A00F60BB42E080020009601B5
:100D76009701183098001830980099019A010F30A1
:100D860091000F309100FF309200FF309300FF304A
:100D96009400073095000F303E00B800EF30C300D6
:100DA600E730CE00E730CE00FF30D9000730E40050
:100DB600B901C401CF01DA01E501BA01C501D001CB
:100DC600DB01E601FF30BB00FF30C600FF30D1007B
:100DD600FF30DC000730E700FF30BC00FF30C70003
:100DE600FF30D200FF30DD000730E80013303D0051
:100DF600C50014303E00A30014303D00C600153077
:100E06003E00A40013303D00C50014303E00A30090
:100E160014303D00C60015303E00A400BD01BE01E1
:100E2600BF01C801C901CA01D301D401D501E90135
:100E3600EA01EB0108002000A101F51F232F242F52
:100E46002B2FF409F509F40A0319F50A0130A1005C
:100E5600F71F2E2F2F2F362FF609F709F60A03193B
:100E6600F70A0130A106A201A3017408750403194B
:100E76003D2F3E2F6B2F0130A000482F0130F43557
:100E8600F50D890B422F0130A007F51F4B2F4C2F74
:100E9600412F0130A235A30D890B4D2F750877021E
:100EA600031D572F74087602031C5A2F5B2F602FE1
:100EB6007408F6027508F73B22140130F536F40C77
:100EC600890B612F0130A002031D6A2F6B2F4C2F57
:100ED600210803196F2F702F752FA209A309A20AE3
:100EE6000319A30A2308F5002208F40008008F312D
:100EF60061278731003A0319812F822FB12F86315E
:100F06005026873120002030860000308700C2300E
:100F16008400003085000A302100D90016001A002E
:100F2600D90B912FCC018E313D2687318331ED23AC
:100F3600873120002030860000308700C2308400D0
:100F46000030850014302100D90016001A00D90B94
:100F5600A82FD6018E3183268731B42F8D31F925FE
:100F660087318A3169228731F400F5018A31662298
:100F760087318A31F422873100308A31DD22873188
:100F860003102000161F03140318CA2FCD2F2000AC
:100F96001617CF2F2000161384316F2487310800CF
:100FA6002100620863040319D92FDA2FEE2F0130CE
:100FB600E2020030E33B6008860061088700010812
:100FC6008A319B22873101302100E0070030E13D64
:100FD6000330F100FE2F68080319F22FF32FFA2FC2
:100FE600E8018A31602287310130F100FE2F8A3113
:0A0FF600EC228731F10071080800B9
:10149C002E008F1008002E000F10080023001115CD
:1014AC00080023000C0808002300911508002300F5
:1014BC009110080023009114080030009E110800C0
:1014CC0022002808080022002908080021006D08C5
:1014DC00080023009012901608002300901310139C
:1014EC000800230091121116080023000F0801397F
:1014FC00080023009116111608002100DD010830A8
:10150C0008008C317A248A3108008F3114278A31F3
:10151C0008002E001914991408008A3163228A31AC
:10152C0008002100ED016E080800F000700823008F
:10153C008C00080023000F0E890C013908000230C2
:10154C008C31D9248A3108008A31EC228A31F0009E
:10155C00700808008A31CF228A31F0007008080028
:10156C002300110E890C890C013908007508220022
:10157C00C7007408C6000800640080010131890BA3
:10158C00C32A003421005E358A319B228A31033014
:10159C0008008A316F228A312100DD0100300800F9
:1015AC00031023008F1E03140030093D0800F400C3
:1015BC0074082100EE000130ED0008000314210036
:1015CC005E0D8A319B228A31043008008A31542204
:1015DC008A318B3190238A3100300800F60076086E
:1015EC00FD007408FC007508FB0008002000A30037
:1015FC00F6012308833135238A310800603031002D
:10160C008D008F019101063093009201080030008B
:10161C001E1775089B0074089A001E141C080800FD
:10162C002000A300F601F60A2308833135238B3101
:10163C0008002E000C100B140030F4000030F500E4
:10164C008A31BC228B310800803027008E007F301D
:10165C008D00C0308C000C3024009F0408008030BA
:10166C0023008F0008309000910192014F308D00C3
:10167C008A318F228B31230090160800492B2508C4
:10168C008B3116238B312000240886008701A40A95
:10169C000108A5002508031D542B552B452B0800CC
:1016AC00013025009C009B019D01FF3099009801A1
:1016BC0000302200C0000030C1002E00901280309B
:1016CC0025009A00080000308131E8218B318039E7
:1016DC000319712B722B782B01302000A3000030E2
:1016EC00A4007B2B2000A301A40108002A302000B9
:1016FC00A4008C31B8248B3180314D208B312000EB
:10170C00B3002A30A700A8013308A9008B31FD23B0
:10171C008B3108002100DD010030DF00FF30DE00DE
:10172C00E001E101E401E501EA018A3151228B314A
:10173C008A314E228B318A3173228B310800200082
:10174C00A50025080319AB2BAC2BAF2BC030A60082
:10175C00B12B8030A60024080F392604A6002608D9
:10176C008A31FC228B3108002A302000A40004307E
:10177C0080314D208B312A302000A700A801A9010F
:10178C008B31FD238B31F80102308C31FC248B31F1
:10179C00080024000E1DD32BD42BE12B0E0801398D
:1017AC00F20071088D0070088C00720C031C0E1076
:1017BC0003180E14E52B71088D0070088C000800BE
:1017CC0021006C08F1006B08F0008B31CF238B31BA
:1017DC002200440845040319F42BF52BFA2B450879
:1017EC008A0044080A008B312E00101008002000DB
:1017FC002908A40028088B31A5238B318B31692350
:10180C008B31200023082404031D0D2C0E2C042CDA
:10181C002708A4008B3144238B3108008B3104231F
:10182C008C318631B9268C318C3197248C318B31AB
:10183C0056238C318B3135238C318A3193228C3168
:10184C008B312A238C318B311F238C3108002000E3
:10185C002008F400392C7408860001308700220817
:10186C0081000130F4070130A4020030A53B240AAA
:10187C00031D442C250A031D442C452C312C080037
:10188C000B0D0B0D0139F70030001E171E157508D6
:10189C009B0074089A0076089C008B137A089F00B2
:1018AC0079089F009E14770C031C8B1303188B175D
:1018BC001E1108000F3023001005F40008307406C8
:1018CC000319692C6A2C732C0F301005F4000B30A3
:1018DC007406031D722C732C742C91150F1C772C11
:1018EC00782C742C0C08080006302100EA00033018
:1018FC00E9008A314E228C3121006A08F200F30192
:10190C00F235F30D1430720784001030733D8038BB
:10191C008500013F8A00003F0A008C312100EA005B
:10192C00080024000E108F019001043091008630C5
:10193C008D00E7308C000D082100EC0024000C0811
:10194C002100EB0003302200C4000030C500003041
:10195C00C2000030C3002E0010101A1405302400F1
:10196C008E0008000130FB073C307B020318BF2CB3
:10197C00C02CC22C0030D82CFB010130FC073C30B1
:10198C007C020318CA2CCB2CCD2C0330D82CFC0198
:10199C000130FD0718307D02031CD52CD62CD72C1A
:1019AC00FD0104300800F4007408031DDE2CDF2C4C
:1019BC00E22C20001612FB2C7403031DE62CE72CE2
:1019CC00EA2C20009612FB2C02307406031DEF2C1F
:1019DC00F02CF32C20001613FB2C03307406031D83
:1019EC00F82CF92CFB2C200096130800F40074083A
:1019FC00031D012D022D052D200016161E2D74031E
:101A0C00031D092D0A2D0D2D200096161E2D0230BA
:101A1C007406031D122D132D162D200016171E2DC6
:101A2C0003307406031D1B2D1C2D1E2D2000961734
:101A3C000800A2308600003087004D308400003052
:101A4C0085000A302100C00016001A00C00B2A2D98
:101A5C00AC308600003087005730840000308500A1
:101A6C001430C10016001A00C10B382D8431EE243D
:101A7C008D312000EF004330F4007030F5006F081A
:101A8C00F6008C3146248D3108008C3114248D31B4
:101A9C0087317A278D318A316C228D31003A0319C6
:101AAC00582D592D6A2D8A3197228D312100DC0059
:101ABC005C08031D622D632D672D8B31BA238D318C
:101ACC006A2D8A31A5228D3129302100DB00963018
:101ADC00DA007F30890B702DDA0B702DDB0B702D3B
:101AEC008B317C238D31512D803131280430F00025
:101AFC008A317B228D31003A0319852D862DB12D2B
:101B0C0021006608670403198C2D8D2D9E2D640809
:101B1C008600650887008A3157228D31810001309B
:101B2C002100E4070030E53D0130E6020030E73BE0
:101B3C00660867040319A32DA42DA82D8A317722DA
:101B4C008D31B42D8A315D228D318A317F228D31D8
:101B5C000730F000B42D8A315A228D3170080800FC
:101B6C00F70023000F0C890C0139F60011081F39FE
:101B7C007604031DC22DC32DB72D11141118C72DBA
:101B8C00C82DC42D0F0C890C0139F60011081F3912
:101B9C007604031DD22DD32DC82D4E308E31C9267F
:101BAC008D3123000F0C890C0139F60011081F39F7
:101BBC007604031DE22DE32DD72D77088E31C9262F
:101BCC008D3123000F0C890C0139F60011081F39D7
:101BDC007604031DF22DF32DE72D11151119F72D98
:101BEC00F82DF42D08002C302000A0000130A100AD
:101BFC000030A200A3001430A4000030A5008C31EA
:101C0C002D248D312C30860001308700203084004B
:101C1C000030850014302000B90016001A00B90BF2
:101C2C00132E85316A258D3103302200A00005303A
:101C3C00A100A2010C30A300A401A5011930A6003B
:101C4C000530A700A801A9012030860001308700CB
:101C5C0020308400003085000A302000B9001600C6
:101C6C001A00B90B352E8531E2258D310800C230B2
:101C7C0086000030870020308400013085000A3057
:101C8C002100CD0016001A00CD0B482E4C0803196C
:101C9C00502E512E822EC23086000030870020300C
:101CAC008400003085000A30CD0016001A00CD0BE0
:101CBC005B2E8531E2258E31C230860000308700E4
:101CCC00A2308400003085000A302100CD001600BF
:101CDC001A00CD0B6D2E2C30860001308700AC30F5
:101CEC008400003085001430CE0016001A00CE0B94
:101CFC007B2E8D311F258E310800C23086000030BE
:101D0C0087002C3084000130850014302100D7006E
:101D1C0016001A00D70B8E2E56080319962E972EE6
:101D2C00C82EC2308600003087002030840000307E
:101D3C0085001430D70016001A00D70BA12E853160
:101D4C006A258E312030860001308700A230840055
:101D5C00003085000A302100D70016001A00D70B7E
:101D6C00B32EC230860000308700AC3084000030C7
:101D7C0085001430D80016001A00D80BC12E8D31F6
:101D8C001F258E310800F500750823008C00901F6C
:101D9C00D02ED12ED22E132F0F301005F400083078
:101DAC0074060319DA2EDB2EF12E0F301005F40019
:101DBC000B3074060319E32EE42EF12E10162E00B0
:101DCC000F1CE92EEA2EE52E23000F19EE2EEF2E16
:101DDC00132F0F08132F0F301005F4000830740662
:101DEC000319F92EFA2E032F0F301005F4000B30C7
:101DFC007406031D022F032F132F0F18062F072F06
:101E0C00032F0F0C890C0139F40011081F397404CD
:101E1C00031D112F122F072F110808008A31512290
:101E2C008F3123000F1E1B2F1C2F202F8B31902343
:101E3C008F314C2F8A31D6228F31003A0319272F3C
:101E4C00282F362F8A31B6228F31003A03192F2FC3
:101E5C00302F362F05302100EA000130E9004C2FDD
:101E6C008A31A0228F31003A03193D2F3E2F4C2F7F
:101E7C008A31B6228F31003A0319452F462F4C2F49
:101E8C0005302100EA000230E9004C2F21006A08DD
:101E9C00F200F301F235F30D1430720784001030A8
:101EAC00733D80388500013F8A00003F0A008F3166
:101EBC002100EA000800863150268F3120002030A6
:101ECC008600003087004D308400003085000A30D9
:101EDC002100A20016001A00A20B702F8331ED23F3
:101EEC008F3120002030860000308700573084006E
:101EFC000030850014302100A30016001A00A30B3B
:101F0C00832F8431EE248F312100A4004230F40061
:101F1C007030F5008B310D238F312100A50043303B
:101F2C00F4007030F5008B310D238F312100A600A9
:101F3C0026082406031DA32FA42FAC2F2A30250618
:101F4C00031DA92FAA2FAC2F0130AD2F0030080094
:101F5C002000A101F71FB32FB42FBB2FF609F709EF
:101F6C00F60A0319F70A0130A100F51FBE2FBF2F87
:101F7C00C42FF409F509F40A0319F50A7408750459
:101F8C000319C92FCA2FF12F0130A000D42F013013
:101F9C00F435F50D890BCE2F0130A007F51FD72F87
:101FAC00D82FCD2F75087702031DDE2F740876020B
:101FBC00031CE12FE22FE62F7408F6027508F73B9D
:101FCC000130F536F40C890BE72F0130A002031D0C
:101FDC00F02FF12FD82F21080319F52FF62FFB2FF7
:101FEC00F609F709F60A0319F70A7708F5007608D7
:101FFC00F400080035340B34003400340034003461
:10200C000034003400340034003400340034003424
:10201C0000340034003400340034003483340A3487
:10202C00E4340A34C8340A34D33407347C340D34E1
:10203C00AA340A34B0340A34EC340A34CF340A34B7
:020000040001F9
:0A000E008F3FFF3F9F3FFF3FFF3F82
:00000001FF
