:0400000080313128F2
:100008007E1480310B1F09280A282F282E00171C60
:100018000E280F2817280D1C12281328172881319D
:10002800A42180312F28971C1A281B2823288D1CCF
:100038001E281F2823288131A12180312F281A1C2E
:10004800262827282F28101C2A282B282F288031DB
:10005800E12080312F287E10090080313328F801F3
:10006800F901FA01FB01FC012000A601A701A80182
:10007800A9017E10200081312429200096019701D2
:10008800980199019A01EF309100FF309200FF30FA
:100098009300FF30940007309500EF303E00B80021
:1000A800EF30C300FF30CE00FF30D9000730E40046
:1000B800B901C401CF01DA01E501BA01C501D001D6
:1000C800DB01E601FF30BB00FF30C600FF30D10086
:1000D800FF30DC000730E700FF30BC00FF30C7000E
:1000E800FF30D200FF30DD000730E800BD01BE015F
:1000F800BF01C801C901CA01D301D401D501E90171
:10010800EA01EB010800003081319321803181310F
:100118009E21803181317A218031003A0319952856
:1001280096288E2881318D2180317108F60070085B
:10013800F5007608F3007508F2000730F400730D37
:10014800F30CF20CF40BA3287208F70007307706BB
:10015800031DAF28B028B32820001616B5282000A4
:1001680016120800210093132E00171097100D1077
:100178008D102000A801A901A601A701FC012200F9
:100188008E018F0190019101920193018D0121004F
:100198009E019D019B019C0194011830950010302F
:1001A800960097019A010F30980099012E001710B8
:1001B800971084302100930008007B08F1007A082A
:1001C800F00081313E2180310130F8070030F93DDF
:1001D80000307902033003197802031CF428F5284B
:1001E80003292000220823040319FB28FC280129DD
:1001F80023088A0022080A008131F801F9012E003B
:100208001010080024000E108F0190010430910096
:1002180086308D00E7308C000D08FB000C08FA00D2
:10022800A7302000A2000130A3000030A000003059
:10023800A1002E0010101A14053024008E000800AA
:100248008131552181318B170B173E00381420005E
:10025800111481319821813187302000AA000030A3
:10026800AB0081318121813181319B2181313B2951
:100278008031312824000E1D4229432950290E08B7
:100288000139F20071088D0070088C00720C031C93
:100298000E1003180E14542971088D0070088C0074
:1002A80008008131712181318031412081318031D3
:1002B800B620813181310621813181316521813139
:1002C80008002E000C100B1400302000AA0000308B
:1002D800AB008131872181310800603031008D0009
:1002E8008F0191010630930092010800031021004C
:1002F800131C03140030093D080020002B08A3003C
:100308002A08A200080020002B08A5002A08A4003B
:10031800080021000D08F1000C08F0000800F000AA
:10032800700821009E0008002E001A1408002400FE
:100338000E1408002100131408002E008D10080068
:080348002E000D100800080052
:020000040001F9
:0A000E008F3FFF3F9F3FFF3FFF3F82
:00000001FF
